:400000000080002011000000850400008504000008B5044B1A6803F53F5302331A6000F039FA00BFFA46004010B5054C237833B9044B13B10448AFF300800123237010BD32
:400040008881FF1F0000000094270000084B10B51BB108480849AFF300800848036803B910BD074B002BFBD0BDE81040184700BF00000000942700008C81FF1F0881FF1FCB
:400080000000000008B50C4800F0A4F90B4801F013F801F01FF800F005FC08200421084A00F00EFC00F072FE00F048FF00F0DAFE00F0B2FF62B6FEE7C081FF1F150400004C
:4000C000A481FF1F0000000070B50546002434E024B900F0BBFF012800F031811CB100F0C9FF0028FBD1631EDBB2072B06D8661E00F0ACFF33462B44187416E0A4F10C03FF
:40010000DBB2072B05D8A4F10C0600F09FFFA8550BE0A4F11703DBB2072B06D8A4F1170600F094FF33462B441872202C03D000F0A1FF0028FBD00134E4B2202CC8D92B7D11
:400140000BB9002601E04FF6FF766B7D0BB9002401E04FF6FF7400231DE05AB2A95C31B1012101FA02F040EA06018EB203E00121914026EA0106A918097A29B10121914000
:4001800041EA040294B204E0012101FA02F224EA02040133DBB258B20628DEDDAB8B33449BB2AB83EA8B224492B2EA83298B013129831CB213B203FB03F304FB04342046A1
:4001C00001F002FD01F028F801F0FEFF0446A88B10F4004F23D1B5F91E30002B1FDD00B202F0F4F80646204602F0F0F80146304602F0F4F901F0FAFC00F0BAFF0022544B20
:4002000001F048FD0022534B01F06EFE4CA3D3E9002301F069FE01F0FFFFA87682E003B2002B28DDEB8B13F4004F24D018B2404202F0CCF80646204602F0C8F8014630460E
:4002400002F0CCF901F0D2FC00F092FF0022404B01F020FD0022404B01F06AFB00223D4B01F042FE36A3D3E9002301F03DFE01F0D3FFA87656E003B2002B28DCB5F91E3013
:40028000002B24DA00B2404202F0A0F80646204602F09CF80146304602F0A0F901F0A6FC00F066FF00222A4B01F0F4FC00222B4B01F03EFB0022274B01F016FE20A3D3E99D
:4002C000002301F011FE01F0A7FFA8762AE010F4004F27D0E88B10F4004F23D100B202F075F80646204602F071F80146304602F075F901F07BFC00F03BFF0022144B01F0D9
:40030000C9FC11A3D3E9002301F012FB0022114B01F0EAFD0AA3D3E9002301F0E5FD01F07BFFA876A87E00F07FF82B8BFA2B06D10023AB83EB832B83C82000F075F870BD0B
:40034000CDCCCCCCCCCCFC3F000000000018A54000E881400000244000208C4000209C4038B50546002000F079FE962000F0BAFE002000F05FFE012000F070FE00F07AFE16
:40038000002420E000F076FE0028FBD114B900F051FE10E0092C03D1002000F04BFE0AE00A2C03D1012000F045FE04E0C4F10803E85C00F03FFE092C03D800F05BFE002885
:4003C000FBD00134E4B20A2CDCD900F03FFE00F051FE38BD002307E05AB2002181540244117211740133DBB25AB2072AF4DD00B583B00023838303838376054A6B461068EA
:40040000516803C36846FFF7ABFF03B05DF804FB9827000008B50348FFF756FE00F05AFE08BD00BFC081FF1F10B5044600F060FCA04215D2C82C13D800F05AFC201AC4B2B3
:4004400000F056FC2044C4B2012000F043FB00F0B3FB00F04DFCA042FBD100F04FFB0FE000F046FCA0420BD954B1002000F032FB00F016FC00F03CFCA042FBD100F0B2FBB4
:40048000002010BD08B502F045F903680C2B00D1FEE7FEE708B5104E104D16E029686B68AC68002204E051F8040B43F8040B0432A242F8D1E868002203E0002143F8041BE4
:4004C00004328242F9D11035013E002EE6D102F027F9FFF7D7FDFEE7010000001428000008B5124A124B1A60124A136843F40073136000230AE0032B03D80F4A52F8231001
:4005000000E00E490E4A42F8231001332F2BF2D90C4B1A780C4B1A70094A0C4B1A6000F0CFF800220A4B1A6008BD00BF0004FA050CED00E014ED00E0000000008504000006
:400540000080FF1FBC7600400481FF1F08ED00E00081FF1FFEE700BFF0B40022174611E050F82760F3B226F0FF0608E001EB420511F812406D78A5550132013BDBB2002B91
:40058000F4D101371F2FEBD9F0BC7047064B1B78DBB203F00701054A11701B09013213704422034B1A707047CF0100496E5800407658004008B50A46002102F0E2F808BDD2
:4005C00038B51722304B1A80182330490B7002310A802F4A137040F2DF1204310A8002310B7002310A802B4A137043F697230232138019250232157002321380264B1D701D
:40060000022203F26A231A7008224FF040231A70032103F500731970204B1B78DBB220490B70204B1A8041F25122023B1A8000240CE01D4B1B7803F0010343EA440404F0C0
:4006400003044FF4F07000F083FD013D0DB1032CEFD115B90320FFF77DFF144B4FF480721A8007221A70002211490A704820023108701A700222033B1A700E4A137843F09C
:400680003F03137038BD00BF8040004082400040864000408E4000409640004008010049A146004022420040254200400440004006400040A243004008B502F057F808BDDF
:4006C00070B572B63A4A137843F00403137000240CE0384963001A1952000A4423445B00C8589188FFF766FF0134E4B2072CF0D900240BE02F49A3001A1952000A44106B85
:40070000516B0622FFF7D8FF0134E4B2002CF1D04FF090402849FFF71FFF284A137843F0020313701032137843F002031370244C237843F040032370A2F58632513A137803
:4007400043F0100313701F481F490822FFF7B4FF1E481F490A22FFF7AFFF1E481E490522FFF7AAFF1D481E490822FFF7A5FF1D481D490822FFF7A0FF1C481D490A22FFF7D7
:400780009BFF1C4A137843F0080313701A4E01253570FFF715FF81233370184B1D70FFF7F5FE174821460E22FFF786FF70BD00BFE8460040A02700008000004803500140A2
:4007C000A043004002510040AC060048C0510040B4060048CB510040C006004812510040C806004822510040D006004830510040D8060048224300400048004004000840A2
:40080000B043004010B50122124B1A7081220E3B1A70082202331A70032211331A70002401331C704FF400420B4B1A600F20072100F076FC0F20094900F05EFC084B1C70C8
:40084000084B1C70084B1C70084B1C70084B1C8010BD00BFD649004080E100E011090000E781FF1FE081FF1FE681FF1FEC81FF1FE481FF1F08B500F073FC084A137843F0E2
:40088000040313701032137843F00403137000F06BFC4FF40042024B1A6008BDA543004000E100E008B5054B1B7823B9FFF7AAFF0122024B1A70FFF7DDFF08BDB481FF1FD4
:4008C00010B44FF400440B4B1C6032B113460A4A13600A4B18800A4B19800023094A1370094A13704FF40042084B1A605DF8044B704700BF80E100E0E881FF1FE281FF1F79
:40090000E481FF1FE681FF1FEC81FF1F00E100E0654B1B78DBB2654A137013F0080F32D0634B1B7813F0010F1CD0624A1378DBB261490968CB5CDBB25D490B7014215A4B77
:4009400019701378DBB25D4A137013780133DBB213705B4A137843F0110313700822594B1A708EE01022504B1A70554A137843F0120313700122534B1A70534A137843F02B
:40098000100313707DE013F0010F7AD04D4A1278D2B2042A1ED0082A3AD0012A68D1444B1B78DBB2414A5370484A128892B293420CD210223C4B1A703C4B5B783D4A1370BF
:4009C0003E4A137004223F4B1A705AE00022364B1A7056E0394B1A783D4B1B889BB29A4212D2334B1B7831494B7010222E4B1A70324A1378DBB2304800684978C154137877
:400A00000133DBB213703CE00022274B1A7038E013F0020F1ED1294B1A782C4B1B889BB29A4210D2254A1378DBB223490968CB5CDBB21F490B7004211B4B19701378013324
:400A4000DBB213701DE0FF22194B1A700422013B1A7016E0FF22164B1A700022013B1A7017490B7803F0EF030B70164B1A7008E00023144A13700F4A1370104A13700A4A5D
:400A80001370094B1B7813F0200F0CD00C4A137803F0EF03137000220A4B1A700A4A137803F0EF0313707047D7490040B581FF1FD8490040E681FF1FE881FF1FEC81FF1FCA
:400AC000E081FF1FE781FF1FD6490040E281FF1FE481FF1F044A137803F0FD03400000F0020018431070704700510040024A137843F080031370704770640040024A1378BB
:400B000003F07F031370704770640040014B1870704700BF00640040014B1870704700BF40640040014B1870704700BF20640040014B1870704700BF80640040014B18787E
:400B4000704700BF60640040014B1878704700BF5064004008B501E0FFF7F6FFFFF7EEFF10F0100FF8D108BD10B5114A137803F0C00343F0190313700E4C237843F001033D
:400B800023700120FFF7C2FF0120FFF7C5FF0120FFF7C8FF0020FFF7CBFF00F0E1FA237843F01003237000F0DFFAFFF7D3FF10BD706400409064004008B5054B1B7823B9D0
:400BC000FFF7D2FF0122024B1A70FFF78FFF08BDB781FF1F024A137843F080031370704772640040024A137803F07F031370704772640040014B1870704700BF036400402B
:400C0000014B1870704700BF43640040014B1870704700BF23640040014B1870704700BF83640040014B1878704700BF63640040014B1878704700BF5364004008B501E0C1
:400C4000FFF7F6FFFFF7EEFF10F0100FF8D108BD10B5114A137803F0C00343F0190313700E4C237843F0010323700120FFF7C2FF0120FFF7C5FF0120FFF7C8FF0020FFF760
:400C8000CBFF00F06DFA237843F01003237000F06BFAFFF7D3FF10BD726400409364004008B5054B1B7823B9FFF7D2FF0122024B1A70FFF78FFF08BDB881FF1F024A1378B4
:400CC00043F080031370704777640040014B1870704700BF87640040014B1878704700BF67640040014B1870704700BF07640040024B1B78024B1878704700BF0764004044
:400D000047640040014B1878704700BF47640040014B1870704700BF27640040014B1870704700BF3764004008B501E0FFF7EAFFFFF7D2FF10F0400FF8D108BD08B5114B17
:400D40001A7802F0F8021A701A7802F0FC021A70FFF7EAFFC820FFF7DBFFC820FFF7C2FF0020FFF7B3FFFFF7B7FF6420FFF7D6FF00F0F6F9044A137843F01003137000F0F5
:400D8000F3F908BD776400409764004008B5054B1B7823B9FFF7D2FF0122024B1A70FFF78DFF08BDB981FF1F024A137843F080031370704774650040014B1870704700BF26
:400DC00004650040014B1870704700BF44650040014B1870704700BF24650040014B1870704700BF84650040014B1878704700BF64650040014B1878704700BF54650040EB
:400E000008B501E0FFF7F6FFFFF7EEFF10F0100FF8D108BD10B5114A137803F0C00343F0090313700E4C237843F001032370C820FFF7C2FFC820FFF7C5FF0A20FFF7C8FF8F
:400E40000020FFF7CBFF00F08BF9237843F01003237000F089F9FFF7D3FF10BD746500409465004008B5054B1B7823B9FFF7D2FF0122024B1A70FFF797FF08BDBA81FF1F6A
:400E8000024A137843F080031370704774640040014B1870704700BF84640040014B1878704700BF64640040014B1870704700BF04640040014B1878704700BF446400405B
:400EC000014B1870704700BF24640040014B1870704700BF3464004008B501E0FFF7EAFFFFF7DCFF10F0400FF8D108BD08B5114B1A7802F0F8021A701A7802F0FC021A7066
:400F0000FFF7EAFFC820FFF7DBFFC820FFF7CCFF0020FFF7BDFFFFF7C1FF6420FFF7D6FF00F01EF9044A137843F01003137000F01BF908BD746400409464004008B5054BCB
:400F40001B7823B9FFF7D2FF0122024B1A70FFF797FF08BDBB81FF1F024A137843F080031370704775650040014B1870704700BF05650040014B1870704700BF456500408D
:400F8000014B1870704700BF25650040014B1870704700BF86650040014B1878704700BF66650040014B1878704700BF5565004008B501E0FFF7F6FFFFF7EEFF10F0100F74
:400FC000F8D108BD08B5124A137803F0C00343F0090313702032137843F001031370FF20FFF7C2FFFF20FFF7C5FFC820FFF7C8FF0020FFF7CBFF00F0B3F8064A137843F0D3
:401000001003137000F0B0F8FFF7D2FF08BD00BF756500409665004008B5054B1B7823B9FFF7D0FF0122024B1A70FFF795FF08BDBC81FF1F044A137803F0DF03400100F01E
:40104000200018431070704730510040024B1878C0F34010704700BF31510040044A137803F0EF03000100F0100018431070704730510040024B1878C0F30010704700BFBD
:4010800031510040014B1B681864704708ED00E04001C0B2014B1870704700BF00E400E00122014B1A60704700E100E00122014B1A60704780E100E010B50446FFF7F6FF9A
:4010C0002046FFF7DFFF0720FFF7E2FFFFF7E8FF10BD00BF0122014B1A60704780E200E001BE704708B5034B1B7A03FB00F000F02FF808BD0C81FF1F70B504460E46074BCD
:401100001D681F2802D90020FFF7EAFF04F01F04103455F8240045F8246070BD08ED00E038B504460D46072902D90020FFF7D8FF1F2C02D90020FFF7D3FF04F01F0000F1E6
:40114000604000F564406D01EDB2057038BD00BF0230800803D000BF01380046FCD17047EFF3108072B6704780F31088704700BF2DE9F0418AB006460F4600F0A5F8DFF859
:401180009480044698F900300D46013304D03046394600F093FB20B9204629460AB0BDE8F0813046394600F085FB0022164B01F001F80028F0D0154900230122144808936F
:4011C000CDE90467CDE902670191009200F0A4FB98F90030CDE90601022B0AD0684600F099FB30B1089B4BB9DDE906010AB0BDE8F08101F08FFA21230360F3E701F08AFAB0
:40120000089B0360F0E700BF0000F03FDC270000E02700001C81FF1F2DE9F0478AB006460F4600F081FADFF898A004469AF900300D4601330FD03046394600F03FFB50B1E9
:401240004FF000084FF000093046394642464B4600F092FF20B9204629460AB0BDE8F08716499AF8004001220023CDE90467CDE9026701910092089364B9CDE90689684646
:4012800000F048FB80B1089B9BB9DDE906010AB0BDE8F0874046494642464B4600F024FE022CCDE90601EAD101F034FA21230360E9E701F02FFA089B0360E6E7E4270000BC
:4012C0001C81FF1F000000002DE9F047C04B21F000469E4286B00D468A46044613DD034606F1404606F58016334322D002460B4600F01CFB02460B4600F0F6FD0446204686
:4013000006B0BDE8F087B34B9E422BDCB6F1795F80F2688192A3D3E9002300F009FB0022AD4B00F047FFE8B12946204606B0BDE8F0878DA3D3E9002300F0ACFC8CA3D3E9F2
:40134000002306460F462046294600F0A3FC02460B463046394600F0EBFA0446204606B0BDE8F0872046294600F0A4FA02460B460020994900F0DAFA0022984B00F08AFC23
:401380007DA3D3E9002304460D4600F083FC7CA3D3E9002300F0CCFA22462B4600F07AFC79A3D3E9002300F0C1FA22462B4600F071FC77A3D3E9002300F0BAFA22462B46DD
:4013C00000F068FC74A3D3E9002300F0AFFA22462B4600F05FFC72A3D3E9002300F0A8FA22462B4600F056FC6FA3D3E90023CDE900012046294600F04DFC6DA3D3E90023A0
:4014000000F094FA22462B4600F044FC6AA3D3E9002300F08DFA22462B4600F03BFC68A3D3E9002300F082FA22462B4600F032FC694B002200F07CFACDE9020120462946AB
:4014400000F072F9664B80469E42894664DC02460B460F4600F06CFADDE90223CDE90401DDE9000100F040FD02460B46DDE9040100F010FC0026CDE9000132464B46304611
:40148000494600F007FC02460B462046294600F04DFA324604460D464B464046494600F047FA02460B462046294600F01DFD02460B4600F03DFA02460B462DA1D1E90001BF
:4014C00000F034FA02460B46DDE9000100F02EFA324604460D463B463046494600F028FA02460B4638A1D1E9000100F01FFA02460B462046294600F019FA02460B4632A196
:40150000D1E9000100F012FA0446BAF1000F3FF7F6AE01F10041F2E6DDE90223DDE9000100F0E2FC02460B464046494600F0B2FB42464B4600F0FCF902460B4600F0F8F9C8
:401540000BA3D3E9002300F0F1F902460B4606A1D1E9000100F0EAF90446D6E7AFF300809C7500883CE4377E182D4454FB21F93F075C143326A6913C09F7FD0DE13D023FC2
:4015800088B20175E0EF493F3B8F68B52882A43F5544880E55C1C93F7D6FEB0312D6D43F555555555555C53F82922EB1C5B8B33F59018D1B6C06E63FC88A599CE52A0040FB
:4015C0004B2D8A1C273A0340182D4454FB21E93FFFFFEF3FFFFFDF3F0000F03F0000E03F3233EF3F02460B4600F054FB38A3D3E9002306460F4600F04DFB37A3D3E90023BB
:4016000000F096F932463B4600F044FB34A3D3E9002300F08BF932463B4600F03BFB32A3D3E9002300F084F932463B4600F032FB2FA3D3E9002300F079F932463B4600F087
:4016400029FB2DA3D3E9002300F072F932463B4600F020FB2AA3D3E90023804689463046394600F017FB28A3D3E9002300F05EF932463B4600F00EFB25A3D3E9002300F086
:4016800057F932463B4600F005FB23A3D3E9002300F04CF932463B4600F0FCFA0022204B00F046F902460B464046494600F01CFC02460B462046294600F0ECFA22462B46A9
:4016C00000F036F90446204606B0BDE8F08700BF09F7FD0DE13D023F88B20175E0EF493F3B8F68B52882A43F5544880E55C1C93F7D6FEB0312D6D43F555555555555C53F82
:4017000082922EB1C5B8B33F59018D1B6C06E63FC88A599CE52A00404B2D8A1C273A03400000F03FAFF300802DE9F041604E0C46B6460E40764505460B4600F098800029EC
:40174000024676DD5FEA215E00F08180AEF2FF3EC3F313031EF0010F43F480135ED100273C46D10F01EB43034FEA6E0E520016204FF4001165189D424FEAD2764FEA4202AF
:4017800002DC5B1B6C180F44013806EB43034FEA5101EFD1844620264FF000410AE0A34220D0D50F013E4FEA510105EB43034FEA420220D09C420CEB0105F0DA002D05EBE1
:4017C000010C09DBA0461B1B954288BF03F1FF334446521B0844E4E7BCF1000FF2DB04F10108F0E7954217D8002D05EB010C48DB98460023ECE7134315D140087B1003F142
:401800007F5303F50013FA0703EB0E57394648BF40F00040BDE8F0811C46C2E7D10F01EB430352009BE7411C31D000F001031844E3E721F000460643ECD079BB8E46D30AC1
:40184000AEF1150E5205002BF9D0DC0222D400215B00D80201F10101FAD5C1F10100C1F1200422FA04F4234386448A406EE702460B4600F00FFA2A46234600F059F8BDE831
:40188000F081BCF1000FAADAA0460023A0E701373046B3E7202401200021E2E702460B4600F044F802460B4600F01EFBB2E700BF0000F07F21F00041704700BF10B431F075
:4018C000004408D0114BA1F580129A4208D804205DF8044B704718B902205DF8044B704701F1FF41094B01F5E0019942EFD9B4F5801F01D20320EBE7054B9C4201D0002090
:40190000E6E7B0FA80F04009E2E700BFFFFFDF7F0000F07F0020704700200149704700BF0000F87F81F0004102E000BF83F0004330B54FEA41044FEA430594EA050F08BFB0
:4019400090EA020F1FBF54EA000C55EA020C7FEA645C7FEA655C00F0E2804FEA5454D4EB5555B8BF6D420CDD2C4480EA020281EA030382EA000083EA010180EA020281EA66
:401980000303362D88BF30BD11F0004F4FEA01314FF4801C4CEA113102D0404261EB410113F0004F4FEA03334CEA133302D0524263EB430394EA050F00F0A780A4F101041C
:4019C000D5F1200E0DDB02FA0EFC22FA05F2801841F1000103FA0EF2801843FA05F359410EE0A5F120050EF1200E012A03FA0EFC28BF4CF0020C43FA05F3C01851EBE371ED
:401A000001F0004507D54FF0000EDCF1000C7EEB00006EEB0101B1F5801F1BD3B1F5001F0CD349085FEA30004FEA3C0C04F101044FEA445212F5800F80F09A80BCF1004FA3
:401A400008BF5FEA500C50F1000041EB045141EA050130BD5FEA4C0C404141EB010111F4801FA4F10104E9D191F0000F04BF01460020B1FA81F308BF2033A3F10B03B3F199
:401A800020020CDA0C3208DD02F1140CC2F10C0201FA0CF021FA02F10CE002F11402D8BFC2F1200C01FA02F120FA0CFCDCBF41EA0C019040E41AA2BF01EB0451294330BD0B
:401AC0006FEA04041F3C1CDA0C340EDC04F11404C4F1200220FA04F001FA02F340EA030021FA04F345EA030130BDC4F10C04C4F1200220FA02F001FA04F340EA0300294693
:401B000030BD21FA04F0294630BD94F0000F83F4801306BF81F480110134013D4EE77FEA645C18BF7FEA655C29D094EA050F08BF90EA020F05D054EA000C04BF194610469F
:401B400030BD91EA030F1EBF0021002030BD5FEA545C05D14000494128BF41F0004130BD14F580043CBF01F5801130BD01F0004545F0FE4141F470014FF0000030BD7FEA20
:401B8000645C1ABF194610467FEA655C1CBF0B46024650EA013406BF52EA033591EA030F41F4002130BD00BF90F0000F04BF0021704730B54FF4806404F132044FF000055D
:401BC0004FF0000150E700BF90F0000F04BF0021704730B54FF4806404F1320410F0004548BF40424FF000013EE700BF42004FEAE2014FEA31014FEA02701FBF12F07F4346
:401C000093F07F4F81F06051704792F0000F14BF93F07F4F704730B54FF4607401F0004521F0004120E700BF50EA010208BF704730B54FF000050AE050EA010208BF70473B
:401C400030B511F0004502D5404261EB41014FF4806404F132045FEA915C3FF4DCAE4FF003025FEADC0C18BF03325FEADC0C18BF033202EBDC02C2F1200300FA03FC20FA9B
:401C800002F001FA03FE40EA0E0021FA02F11444C1E600BF70B54FF0FF0C4CF4E06C1CEA11541DBF1CEA135594EA0C0F95EA0C0F00F0DEF82C4481EA030621EA4C5123EAF0
:401CC0004C5350EA013518BF52EA033541F4801143F4801338D0A0FB02CE4FF00005E1FB02E506F00042E0FB03E54FF00006E1FB03569CF0000F18BF4EF0010EA4F1FF04B4
:401D0000B6F5007F64F5407404D25FEA4E0E6D4146EB060642EAC62141EA55514FEAC52040EA5E504FEACE2EB4F1FD0C88BFBCF5E06F1ED8BEF1004F08BF5FEA500E50F15F
:401D4000000041EB045170BD06F0004646EA010140EA020081EA0301B4EB5C04C2BFD4EB0C0541EA045170BD41F480114FF0000E013C00F3AB8014F1360FDEBF002001F049
:401D8000004170BDC4F10004203C35DA0C341BDC04F11404C4F1200500FA05F320FA04F001FA05F240EA020001F0004221F0004110EBD37021FA04F642EB06015EEA430EB0
:401DC00008BF20EAD37070BDC4F10C04C4F1200500FA04F320FA05F001FA04F240EA020001F0004110EBD37041F100015EEA430E08BF20EAD37070BDC4F1200500FA05F29E
:401E00004EEA020E20FA04F301FA05F243EA020321FA04F001F0004121FA04F220EA020000EBD3705EEA430E08BF20EAD37070BD94F0000F0FD101F00046400041EB0101A7
:401E400011F4801F08BF013CF7D041EA060195F0000F18BF704703F00046520043EB030313F4801F08BF013DF7D043EA0603704794EA0C0F0CEA135518BF95EA0C0F0CD03D
:401E800050EA410618BF52EA4306D1D181EA030101F000414FF0000070BD50EA410606BF1046194652EA430619D094EA0C0F02D150EA013613D195EA0C0F05D152EA033687
:401EC0001CBF104619460AD181EA030101F0004141F0FE4141F470014FF0000070BD41F0FE4141F4780170BD70B54FF0FF0C4CF4E06C1CEA11541DBF1CEA135594EA0C0FC0
:401F000095EA0C0F00F0A7F8A4EB050481EA030E52EA03354FEA013100F088804FEA03334FF0805545EA131343EA12634FEA022245EA111545EA10654FEA00260EF000411F
:401F40009D4208BF964244F1FD0404F5407402D25B084FEA3202B61A65EB03055B084FEA32024FF480104FF4002CB6EB020E75EB030E22BFB61A754640EA0C005B084FEAC2
:401F80003202B6EB020E75EB030E22BFB61A754640EA5C005B084FEA3202B6EB020E75EB030E22BFB61A754640EA9C005B084FEA3202B6EB020E75EB030E22BFB61A754657
:401FC00040EADC0055EA060E18D04FEA051545EA16754FEA06164FEAC30343EA52734FEAC2025FEA1C1CC0D111F4801F0BD141EA00014FF000004FF0004CB6E711F4801F87
:4020000004BF01430020B4F1FD0C88BFBCF5E06F3FF6AFAEB5EB030C04BFB6EB020C5FEA500C50F1000041EB045170BD0EF0004E4EEA113114EB5C04C2BFD4EB0C0541EA9C
:40204000045170BD41F480114FF0000E013C90E645EA060E8DE60CEA135594EA0C0F08BF95EA0C0F3FF43BAF94EA0C0F0AD150EA01347FF434AF95EA0C0F7FF425AF10467D
:4020800019462CE795EA0C0F06D152EA03353FF4FDAE1046194622E750EA410618BF52EA43067FF4C5AE50EA41047FF40DAF52EA43057FF4EBAE12E74FF0FF3C06E000BF14
:4020C0004FF0010C02E000BF4FF0010C4DF804CD4FEA410C7FEA6C5C4FEA430C18BF7FEA6C5C1BD001B050EA410C0CBF52EA430C91EA030F02BF90EA020F0020704710F120
:40210000000F91EA030F58BF994208BF90422CBFD8176FEAE37040F0010070474FEA410C7FEA6C5C02D150EA013C07D14FEA430C7FEA6C5CD6D152EA033CD3D05DF8040B4F
:40214000704700BF8446104662468C461946634600E000BF01B5FFF7B7FF002848BF10F1000F01BD4DF808EDFFF7F4FF0CBF012000205DF808FB00BF4DF808EDFFF7EAFFEA
:4021800034BF012000205DF808FB00BF4DF808EDFFF7E0FF94BF012000205DF808FB00BF4DF808EDFFF7CEFF94BF012000205DF808FB00BF4DF808EDFFF7C4FF34BF01206B
:4021C00000205DF808FB00BF4FEA410212F5001215D211D56FF47873B3EB625212D94FEAC12343F0004343EA505311F0004F23FA02F018BF404270474FF00000704750EAB9
:40220000013005D111F0004008BF6FF0004070474FF00000704700BF4A0011D212F5001211D20DD56FF47873B3EB62520ED44FEAC12343F0004343EA505323FA02F07047CE
:402240004FF00000704750EA013002D14FF0FF3070474FF00000704780F0004002E000BF81F0004142001FBF5FEA410392EA030F7FEA226C7FEA236C6AD04FEA1262D2EB3E
:402280001363C1BFD218414048404140B8BF5B42192B88BF704710F0004F40F4000020F07F4018BF404211F0004F41F4000121F07F4118BF494292EA030F3FD0A2F10102C7
:4022C00041FA03FC10EB0C00C3F1200301FA03F100F0004302D5494260EB4000B0F5000F13D3B0F1807F06D340084FEA310102F10102FE2A51D2B1F1004F40EBC25008BFBB
:4023000020F0010040EA03007047490040EB000010F4000FA2F10102EDD1B0FA80FCACF1080CB2EB0C0200FA0CF0AABF00EBC25052421843BCBFD0401843704792F0000FD2
:4023400081F4000106BF80F400000132013BB5E74FEA41037FEA226C18BF7FEA236C21D092EA030F04D092F0000F08BF0846704790EA010F1CBF0020704712F07F4F04D1CF
:40238000400028BF40F00040704712F100723CBF00F50000704700F0004343F0FE4040F4000070477FEA226216BF08467FEA23630146420206BF5FEA412390EA010F40F46A
:4023C000800070474FF0000304E000BF10F0004348BF40425FEA000C08BF704743F0964301464FF000001CE050EA010208BF70474FF000030AE000BF50EA010208BF704733
:4024000011F0004302D5404261EB41015FEA010C02BF84460146002043F0B64308BFA3F18053A3F50003BCFA8CF2083AA3EBC25310DB01FA02FC634400FA02FCC2F12002C3
:40244000BCF1004F20FA02F243EB020008BF20F00100704702F1200201FA02FCC2F1200250EA4C0021FA02F243EB020008BF20EADC7070474FF0FF0C1CEAD0521EBF1CEAC2
:40248000D15392EA0C0F93EA0C0F6FD01A4480EA010C400218BF5FEA41211ED04FF0006343EA501043EA5111A0FB01310CF00040B1F5000F3EBF490041EAD3715B0040EA4D
:4024C000010062F17F02FD2A1DD8B3F1004F40EBC25008BF20F00100704790F0000F0CF0004C08BF49024CEA502040EA51207F3AC2BFD2F1FF0340EAC250704740F40000DC
:402500004FF00003013A5DDC12F1190FDCBF00F000407047C2F10002410021FA02F1C2F1200200FA02FC5FEA310040F1000053EA4C0308BF20EADC70704792F0000F00F0DB
:40254000004C02BF400010F4000F013AF9D040EA0C0093F0000F01F0004C02BF490011F4000F013BF9D041EA0C018FE70CEAD15392EA0C0F18BF93EA0C0F0AD030F0004CBB
:4025800018BF31F0004CD8D180EA010000F00040704790F0000F17BF90F0004F084691F0000F91F0004F14D092EA0C0F01D142020FD193EA0C0F03D14B0218BF084608D1D2
:4025C00080EA010000F0004040F0FE4040F40000704740F0FE4040F4400070474FF0FF0C1CEAD0521EBF1CEAD15392EA0C0F93EA0C0F69D0A2EB030280EA010C49024FEAE0
:40260000402037D04FF0805343EA111143EA10130CF000408B4238BF5B0042F17D024FF4000C8B4224BF5B1A40EA0C00B3EB510F24BFA3EB510340EA5C00B3EB910F24BF61
:40264000A3EB910340EA9C00B3EBD10F24BFA3EBD10340EADC001B0118BF5FEA1C1CE0D1FD2A3FF650AF8B4240EBC25008BF20F0010070470CF0004C4CEA50207F32C2BF70
:40268000D2F1FF0340EAC250704740F400004FF00003013A37E792F0000F00F0004C02BF400010F4000F013AF9D040EA0C0093F0000F01F0004C02BF490011F4000F013B4F
:4026C000F9D041EA0C0195E70CEAD15392EA0C0F08D142027FF47DAF93EA0C0F7FF470AF084676E793EA0C0F04D14B023FF44CAF08466EE730F0004C18BF31F0004CCAD145
:4027000030F000427FF45CAF31F000437FF43CAF5FE700BF014B1868704700BF8081FF1F0E4B70B51E460E4C0025E41AA410A54204D056F8253098470135F8E700F058F8EC
:40274000084B094C1E46E41AA4100025A54204D056F8253098470135F8E770BDFC270000FC270000FC2700000428000010B5431E0A44914204D011F8014B03F8014FF8E7C8
:4027800010BD03460244934202D003F8011BFAE770470000000000000101010100010000C84900401900405100403000F05100401000000001400010001401400008004078
:4027C0000140000A004C0140000200500140200060520040A4060048060000006173696E00000000737172740000000043000000F8B500BFF8BC08BC9E4670474D000000E0
:40280000E1040000F8B500BFF8BC08BC9E46704729000000282800000881FF1F800000006800000000000000000000000000E02EC05D00001800000000366E010100000043
:402840000000000000000000000000000000000000000000000000000000000000000000EC2700000000000000000000000000000000000000000000000000000000000045
:4028800000000000000000000000000000000000000000000000000000000000000000002081FF1F0000000000000000000000000000000000000000000000000000000059
:4028C00000000000000000000000000000000000000000000000000000000000000000000000000000000000000000000000000000000000000000000000000000000000D8
:402900000000000000000000000000000000000000000000000000000000000000000000000000000000000000000000000000000000000000000000000000000000000097
:402940000000000000000000000000000000000000000000000000000000000000000000000000000000000000000000000000000000000000000000000000000000000057
:402980000000000000000000000000000000000000000000000000000000000000000000000000000000000000000000000000000000000000000000000000000000000017
:020000040003F7
:0200000480007A
:4000000001450040055200400564004003650040500001402A0101403C0201402C0301404304014037050140410601403D070140010D014050140140341501403916014046
:4000400031170140011B01400240014003410140044201400243014003440140054501400146014001470140024801400E490140084C0140064D01400550014002510140EB
:400080001C0200011008110818701940800D810D830D846F876F840D860D870D040208020F02120417011A042A012D013001330234043602370138803E504030410545D0DE
:4000C00046024701481649FF4AFF4BFF4DA04F04501852805405580459045A045B045C555D555F01604062C06440654066C068C06AC06CC06EC08202840192029601B00169
:40010000B402BE10C010C104C5D0C610C720C82AC9FFCAFFCBFFCDA0CF04D018D405D804DA04DB04DC04DD44DF01E040E2C0E440E540E6C0E8C0EAC0ECC0EEC001200320EB
:40014000050407800A080B800D020F2010081A041B811E882104224423102B0130083A8041044502478049024B804F01500853405502571059025A845E885F017280C036F7
:40018000C23AC402CA08CC02CE08D092D208D6DB02011F0128012E023001330136025280580459045B045C555D505F018A088B0294019B019F02A203A604A704AD01B0040C
:4001C000B104B202B302B408B501B601BE40BF14C010C106C5D0C621C80EC9FFCAFFCBFFCDA0CF04D018D405D804D904DA04DB04DC11DD55DF01E040E2C0E440E540E6C07C
:40020000E8C0EAC0ECC0EEC0012006400A1010A0176019801A141B011E401F8020802204230827202B213020338036803B20438049014B2052C0531059015A4877409310AF
:400240009D249F80A008A310A720AF80C012C204C4CCCA0ACC1CCE04D008D204D60BEC080208030406110A020C110F0112031604180219022208230225042A043004310440
:40028000320834103501360337023E503F4140104102450346C4472E483D49FF4AFF4BFF4DA04F0150185280540F580459045A045B045C455D115F016040628064406540C6
:4002C000668068406A806C406D206E8083019601B101B201B301B501D280D804D904DB04DC44DD40DF010088012003800A440B100F2010081240181519021A201D0422017A
:4003000023062440251026042909322038023B803C0240054820508151085211582059805A025B0861086210724074019204931099809A409B089D249F80A048A390A4A0C0
:40034000A720C00FC22EC40ACA03CC04CE89D00CD60FD806030116012E01310134015280580459045B045C445D405F01810882118A028C118F04920C97049C029F09A30262
:40038000A404AA08AE03B004B101B210B304B408B502B603B708BE44BF44C010C103C524C6C3C70EC81FC9FFCAFFCBFFCDA0CF01D018D280D40FD804D904DA04DB04DC0496
:4003C000DF01E040E280E440E540E680E840EA80EC40ED20EE800090010209800B800F20112013441780180119201A501C081F20210122A427802901308033083840390248
:400400003C024001421048204901508051085210580859805B126108621073407401905092209304978099029A019B029D299F80A110A204A310A404A620A720A821C00B3A
:40044000C229C487CA01CC0ACE89D00AD60FD806EC08020212011E041F0126022D0130043402360137013E104010410245D24601480749FF4AFF4BFF4DA04F045018528052
:400480005405580459045A045B045C335D335F01604062C06440654066C068C06AC06CC06EC087018E019F02A302AA01AB01AE02B202B401B501B702BF10C020C103C5D0CD
:4004C000C712C832C9FFCAFFCBFFCDA0CF04D018D280D804D904DA04DB04DC32DD22DF01E040E2C0E440E540E6C0E8C0EAC0ECC0EEC00380060109821020140417801A0482
:400500001B811D101F082240264027082B012C042F88302031A036803D084120438044044504482049014D015180528055045601570259015A847102778086408D109501A9
:400540009F08A702AA40C088C209C4C4CAA8CC18CE40D06CD60BE240EA0112012C012F01300131015405580459045B045C225D205F0180048E01940498029B02A304A60248
:40058000A701B004B104B201B501B602B702B802BE41C060C103C5D0C601C702C816C9FFCAFFCBFFCDA0CF04D018D405D804D904DA04DB04DC01DD44DF01E040E2C0E4401A
:4005C000E540E6C0E8C0EAC0ECC0EEC00102020109200A200C011030178019881A801E80208021A02780281029022C012F023210430849014A04534859015A485D015E80AD
:400600005F089268978099029A019D88A020A204A440A580A708A901AB10AC08AE80C009C216C484CA13CC04D002D204D6DBEA013240CC1057089680D4403E109680A708BE
:40064000CE209690A70810101420C40C560298309A02AE02D604983098309690A7080A805908641084108D089680AA10AB08C210D640D880E640EA80EE8010401320148088
:4006800078107C209830C40EDE0378407C8098C0AB20DC01DE04003308320A33101F1A1F000303C020300000300000000003030001000000300000003000300000300000E6
:4006C0000020000000000000000B0B0000000000030C0C0008000000100000C0F000C000000000000000000000000000000000000000000000000000000000000000000021
:4007000000000000000000000000000000000000000000000000000000000000000000000000000000000000000000000000000000000000000000000000000000000000B9
:400740000000000000000000000000000000000000000000000000000000000000000000000000000000000000000000000000000000000000000000000000000000000079
:400780000000000000000000000000000000000000000000000000000000000000000000000000000000000000000000000000000000000000000000000000000000000039
:4007C00000000000000000000000000000000000000000000000000000000000000000000000000000000000000000000000000000000000000000000000000000000000F9
:0200000490006A
:0400000000004005B7
:0200000490105A
:04000000BC90ACAF55
:0200000490303A
:020000004BB4FF
:0200000490402A
:4000000000000000000000000000000000000000000000000000000000000000000000000000000000000000000000000000000000000000000000000000000000000000C0
:400040000000000000000000000000000000000000000000000000000000000000000000000000000000000000000000000000000000000000000000000000000000000080
:400080000000000000000000000000000000000000000000000000000000000000000000000000000000000000000000000000000000000000000000000000000000000040
:4000C0000000000000000000000000000000000000000000000000000000000000000000000000000000000000000000000000000000000000000000000000000000000000
:0200000490501A
:0C00000000012E12706900012E24BC1DAE
:00000001FF