:400000000080002011000000190200001902000008B5044B1A6803F53F5302331A6000F003F900BFFA46004010B5054C237833B9044B13B10448AFF300800123237010BD45
:400040007081FF1F00000000780F0000084B10B51BB108480849AFF300800848036803B910BD074B002BFBD0BDE81040184700BF00000000780F00007481FF1F0881FF1F63
:400080000000000008B500F0ABF800F003FB082004210A4A00F00CFB62B6084B1A7A1878824202D0597800F00BF8044B9A7A98788242F2D0D97800F04BF8EEE78C81FF1F04
:4000C00038B504460D46204B1A78204B1A70012000F0FEFB284600F0F5FB00F013FDA0421AD2C82C18D800F00DFD201AC5B200F009FD2844C5B2012000F0F6FB00F066FCA2
:4001000003E0114B1B78A34203D100F0FBFCA842F7D100F0FDFB14E000F0F4FCA04210D97CB1002000F0E0FB00F0C4FC03E0064B1B78A34203D100F0E5FCA042F7D100F061
:400140005BFC002038BD00BF8C81FF1F9481FF1F38B504460D46204B9A78204B9A70012000F09CFE284600F093FE00F04DFDA0421AD2C82C18D800F047FD201AC5B200F01F
:4001800043FD2844C5B2012000F018FD00F072FE03E0114B9B78A34203D100F035FDA842F7D100F009FE14E000F0ACFCA04210D97CB1002000F002FD00F0E8FD03E0064B24
:4001C0009B78A34203D100F01FFDA042F7D100F07FFD002038BD00BF8C81FF1F9481FF1F08B5012000F080FB00F0F0FB00F062FE0128FBD100F08CFB00F0D2FC012000F030
:40020000DDFC00F037FE00F05DFE0128FBD100F0D3FD00F047FD08BD08B500F06DFE03680C2B00D1FEE7FEE708B5104E104D16E029686B68AC68002204E051F8040B43F8F3
:40024000040B0432A242F8D1E868002203E0002143F8041B04328242F9D11035013E002EE6D100F04FFEFFF70DFFFEE701000000E00F000008B5124A124B1A60124A1368B4
:4002800043F40073136000230AE0032B03D80F4A52F8231000E00E490E4A42F8231001332F2BF2D90C4B1A780C4B1A70094A0C4B1A6000F0CFF800220A4B1A6008BD00BFC6
:4002C0000004FA050CED00E014ED00E000000000190200000080FF1FBC7600400481FF1F08ED00E00081FF1FFEE700BFF0B40022174611E050F82760F3B226F0FF0608E0D0
:4003000001EB420511F812406D78A5550132013BDBB2002BF4D101371C2FEBD9F0BC7047064B1B78DBB203F00701054A11701B09013213704422034B1A707047CF01004996
:400340006E5800407658004008B50A46002100F00AFE08BD38B51722304B1A80182330490B7002310A802F4A137040F2DF1204310A8002310B7002310A802B4A137043F6DD
:4003800097230232138019250232157002321380264B1D70022203F26A231A7008224FF040231A70032103F500731970204B1B78DBB220490B70204B1A8041F25122023B0B
:4003C0001A8000240CE01D4B1B7803F0010343EA440404F003044FF4F07000F07DFD013D0DB1032CEFD115B90320FFF77DFF144B4FF480721A8007221A70002211490A70BF
:400400004820023108701A700222033B1A700E4A137843F03F03137038BD00BF8040004082400040864000408E4000409640004008010049A14600402242004025420040B4
:400440000440004006400040A243004008B500F07FFD08BD70B572B63A4A137843F00403137000240CE0384963001A1952000A4423445B00C8589188FFF766FF0134E4B25E
:40048000072CF0D900240BE02F49A3001A1952000A44106B516B0622FFF7D8FF0134E4B2002CF1D04FF090402849FFF71FFF284A137843F0020313701032137843F002030E
:4004C0001370244C237843F040032370A2F58632513A137843F0100313701F481F490822FFF7B4FF1E481F490A22FFF7AFFF1E481E490522FFF7AAFF1D481E490822FFF778
:40050000A5FF1D481D490822FFF7A0FF1C481D490822FFF79BFF1C4A137843F0080313701A4E01253570FFF715FF81233370184B1D70FFF7F5FE174821460E22FFF786FF89
:4005400070BD00BFE84600407C0F00007400004803500140A04300400251004020060048C051004028060048CB51004034060048125100403C06004822510040440600480B
:40058000325100404C060048224300400048004004000840B043004001BE704770B504460E46074B1D681F2802D90020FFF7F4FF04F01F04103455F8240045F8246070BD3D
:4005C00008ED00E038B504460D46072902D90020FFF7E2FF1F2C02D90020FFF7DDFF04F01F0000F1604000F564406D01EDB2057038BD00BF10B50122124B1A7081220E3B54
:400600001A70082202331A70032211331A70002401331C704FF400420B4B1A600F200721FFF7D0FF0F200949FFF7B8FF084B1C70084B1C70084B1C70084B1C70084B1C8066
:4006400010BD00BFD649004080E100E001070000AF81FF1FA881FF1FAE81FF1FB481FF1FAC81FF1F08B500F03FFC084A137843F0040313701032137843F00403137000F0CA
:4006800037FC4FF40042024B1A6008BDA543004000E100E008B5054B1B7823B9FFF7AAFF0122024B1A70FFF7DDFF08BD9C81FF1F10B44FF400440B4B1C6032B113460A4A79
:4006C00013600A4B18800A4B19800023094A1370094A13704FF40042084B1A605DF8044B704700BF80E100E0B081FF1FAA81FF1FAC81FF1FAE81FF1FB481FF1F00E100E0EC
:40070000654B1B78DBB2654A137013F0080F32D0634B1B7813F0010F1CD0624A1378DBB261490968CB5CDBB25D490B7014215A4B19701378DBB25D4A137013780133DBB2B6
:4007400013705B4A137843F0110313700822594B1A708EE01022504B1A70554A137843F0120313700122534B1A70534A137843F0100313707DE013F0010F7AD04D4A1278D3
:40078000D2B2042A1ED0082A3AD0012A68D1444B1B78DBB2414A5370484A128892B293420CD210223C4B1A703C4B5B783D4A13703E4A137004223F4B1A705AE00022364B10
:4007C0001A7056E0394B1A783D4B1B889BB29A4212D2334B1B7831494B7010222E4B1A70324A1378DBB2304800684978C15413780133DBB213703CE00022274B1A7038E005
:4008000013F0020F1ED1294B1A782C4B1B889BB29A4210D2254A1378DBB223490968CB5CDBB21F490B7004211B4B197013780133DBB213701DE0FF22194B1A700422013B3E
:400840001A7016E0FF22164B1A700022013B1A7017490B7803F0EF030B70164B1A7008E00023144A13700F4A1370104A13700A4A1370094B1B7813F0200F0CD00C4A137884
:4008800003F0EF03137000220A4B1A700A4A137803F0EF0313707047D74900409D81FF1FD8490040AE81FF1FB081FF1FB481FF1FA881FF1FAF81FF1FD6490040AA81FF1FA8
:4008C000AC81FF1F014B1870704700BF25650040044A137803F0BF03800100F0400018431070704730510040044A137803F0FD03400000F0020018431070704700510040E6
:40090000024A137843F080031370704776640040024A137803F07F031370704776640040014B1870704700BF06640040014B1870704700BF46640040014B1870704700BFC4
:4009400026640040014B1870704700BF86640040014B1878704700BF66640040014B1878704700BF5664004008B501E0FFF7F6FFFFF7EEFF10F0100FF8D108BD10B5114A58
:40098000137803F0C00343F0190313700E4C237843F0010323700120FFF7C2FF0120FFF7C5FF0120FFF7C8FF0020FFF7CBFF00F09BFA237843F01003237000F099FAFFF782
:4009C000D3FF10BD766400409664004008B5054B1B7823B9FFF7D2FF0122024B1A70FFF78FFF08BD9F81FF1F024A137843F080031370704777640040024A137803F07F0312
:400A00001370704777640040014B1870704700BF07640040014B1870704700BF47640040014B1870704700BF27640040014B1870704700BF87640040014B1878704700BF5B
:400A400067640040014B1878704700BF5764004008B501E0FFF7F6FFFFF7EEFF10F0100FF8D108BD10B5114A137803F0C00343F0190313700E4C237843F0010323700120F2
:400A8000FFF7C2FF0120FFF7C5FF0120FFF7C8FF0020FFF7CBFF00F027FA237843F01003237000F025FAFFF7D3FF10BD776400409764004008B5054B1B7823B9FFF7D2FF24
:400AC0000122024B1A70FFF78FFF08BDA081FF1F024A137843F080031370704775640040014B1870704700BF85640040014B1878704700BF65640040014B1870704700BF7C
:400B000005640040024B1B78024B1878704700BF0564004045640040014B1878704700BF45640040014B1870704700BF25640040014B1870704700BF3564004008B501E038
:400B4000FFF7EAFFFFF7D2FF10F0400FF8D108BD08B5114B1A7802F0F8021A701A7802F0FC021A70FFF7EAFFC820FFF7DBFFC820FFF7C2FF0020FFF7B3FFFFF7B7FF642097
:400B8000FFF7D6FF00F0B0F9044A137843F01003137000F0ADF908BD756400409564004008B5054B1B7823B9FFF7D2FF0122024B1A70FFF78DFF08BDA181FF1F044A1378E5
:400BC00003F0FB03800000F0040018431070704720510040024A137843F080031370704770640040014B1870704700BF80640040014B1878704700BF60640040014B1870DA
:400C0000704700BF00640040024B1B78024B1878704700BF0064004040640040014B1878704700BF40640040014B1870704700BF20640040014B1870704700BF306400407D
:400C400008B501E0FFF7EAFFFFF7D2FF10F0400FF8D108BD08B5114B1A7802F0F8021A701A7802F0FC021A70FFF7EAFFC820FFF7DBFFC820FFF7C2FF0020FFF7B3FFFFF732
:400C8000B7FF6420FFF7D6FF00F02EF9044A137843F01003137000F02BF908BD706400409064004008B5054B1B7823B9FFF7D2FF0122024B1A70FFF78DFF08BDA281FF1F90
:400CC000024A137843F080031370704771640040024A137803F07F031370704771640040014B1870704700BF02640040014B1870704700BF42640040014B1870704700BF13
:400D000022640040014B1870704700BF82640040014B1878704700BF62640040014B1878704700BF5264004008B501E0FFF7F6FFFFF7EEFF10F0100FF8D108BD10B5114AA4
:400D4000137803F0C00343F0190313700E4C237843F0010323700120FFF7C2FF0120FFF7C5FF0120FFF7C8FF0020FFF7CBFF00F0BBF8237843F01003237000F0B9F8FFF782
:400D8000D3FF10BD716400409264004008B5054B1B7823B9FFF7D2FF0122024B1A70FFF78FFF08BDA381FF1F024A137843F080031370704774640040024A137803F07F0356
:400DC0001370704774640040014B1870704700BF03640040014B1870704700BF43640040014B1870704700BF23640040014B1870704700BF83640040014B1878704700BFAB
:400E000063640040014B1878704700BF5364004008B501E0FFF7F6FFFFF7EEFF10F0100FF8D108BD10B5114A137803F0C00343F0190313700E4C237843F001032370012036
:400E4000FFF7C2FF0120FFF7C5FF0120FFF7C8FF0020FFF7CBFF00F047F8237843F01003237000F045F8FFF7D3FF10BD746400409364004008B5054B1B7823B9FFF7D2FF2B
:400E80000122024B1A70FFF78FFF08BDA481FF1F014B1870704700BF24650040044A137803F07F03C001C0B203431370704700BF30510040024B187800F00100704700BFD4
:400EC00021510040024B1878C0F34000704700BF21510040000000000230800803D000BF01380046FCD17047EFF3108072B6704780F31088704700BF014B1868704700BFE5
:400F00006C81FF1F0E4B70B51E460E4C0025E41AA410A54204D056F8253098470135F8E700F04CF8084B094C1E46E41AA4100025A54204D056F8253098470135F8E770BDAB
:400F4000C80F0000C80F0000C80F0000D00F000010B5431E0A44914204D011F8014B03F8014FF8E710BD03460244934202D003F8011BFAE77047000000000000C849004070
:400F80001900405100403000F0510040100000000140001000140140000800400140000A004C0140000200500140200060520040180600480600000043000000F8B500BF00
:400FC000F8BC08BC9E4670474D00000075020000F8B500BFF8BC08BC9E46704729000000F00F00000881FF1F6800000048000000000000000000000000000000000000001C
:401000000000000000000000000000000000000000000000B80F000000000000000000000000000000000000000000000000000000000000000000000000000000000000E9
:4010400000000000000000000000000000000000000000000C81FF1F00000000000000000000000000000000000000000000000000000000000000000000000000000000C5
:401080000000000000000000000000000000000000000000000000000000000000000000000000000000000000000000000000000000000000000000000000000000000030
:4010C00000000000000000000000000000000000000000000000000000000000000000000000000000000000000000000000000000000000000000000000000000000000F0
:4011000000000000000000000000000000000000000000000000000000000000000000000000000000000000000000000000000000000000000000000000000000000000AF
:40114000000000000000000000000000000000000000000000000000000000000000000000000000000000000000000000000000000000000000000000000000000000006F
:020000040003F7
:0200000480007A
:4000000004520040066400400265004047000140300101405A0201403C03014044040140350501405306014031070140010B0140551401403415014002170140011B014073
:40004000044101400242014001430140034401400345014002460140014701400148014009490140084C0140064D014005500140015101400001010118C01940806F820DAC
:40008000830D856F860D870D840D850D03010411080209010E110F041104120817081E02220423022A082E032F02300831023204330134033508361037043E503F4440208B
:4000C0004105453246C4470E481F49FF4AFF4BFF4DA04F0150185280540F580459045A045B045C445D115F016040628064406540668068406A806C406D206E809F02A20136
:40010000AB02AF01B301B502B601BF10D280D804D904DB04DC14DD40DF0100680A020B401040120813801680185419801DC0225524202708284029402A012E202F013030A2
:4001400031023208354038A03B024004482049804B02504051085290581059015A886108621073807680C007C209C41BCA39CC13CE0DD004D208D60FD80606040B040E02CB
:400180001101210225012E012F0231023204330134023504360139083F054010410345D046204710482A49FF4AFF4BFF4DA04F0450185405580459045A045B045D445F0191
:4001C000604062C06440654066C068C06AC06CC06EC0820288028C048F04930294019C049F01AA01B002B101B204B302B401B504B808BE04C050C106C5D0C620C701C81A21
:40020000C9FFCAFFCBFFCDA0CF04D018D405D804D904DA04DB04DC14DD44DF01E040E2C0E440E540E6C0E8C0EAC0ECC0EEC000520480050807020A221208154018081904DA
:400240001A401D101E101F402028210227A42D482F423281370238403F204580462049424B604D0150105208531054015621588059025A085D015E405F08832090509222C4
:4002800097409B089D019E21A020A180A280A414A502A608C0ABC205C482CAD0CC89CE28D050D20CD6DB0A040B02120118021B0126022A042F023002330234043501360154
:4002C0003E113F045280580459045B045C145D405F0182028302860988028B01940995019E04A502AE03B101B208B404B502B603BE44BF11C010C103C53CC620C74EC83B41
:40030000C9FFCAFFCBFFCDA0CF01D018D280D40FD804D904DA04DB04DF01E040E280E440E540E680E840EA80EC40ED20EE800120051A09220E100F011020120817401941B4
:400340001A041D881F10212022042601270829402F103020370438203F3145884F05560457125E025F986604670471027740902092109480960899109B849D49A020A7126E
:40038000A904B484C072C2AAC486CA48CC44CEA4D050D6F0D860EC01020408080E0816011E012202230124042F023008320433023401350136023E104010410645D0462028
:4003C0004710482A49FF4AFF4BFF4DA04F04501852805405580459045A045B045C555D555F01604062C06440654066C068C06AC06CC06EC08204860492029E02AE01B004C9
:40040000B202B401C020C106C5D0C601C702C816C9FFCAFFCBFFCDA0CF04D018D280D405D804DA04DB04DC05DD55DF01E040E2C0E440E540E6C0E8C0EAC0ECC0EEC00240D0
:4004400003200410064109810D800F201340168017081880192A1B201C401D841E08241027082F824320458049014A084D014F205248538055015601571259015A045B400C
:400480005C405D015E0873407680920494809D2AA608C0DCC2A9C431CA90D014D224D6DBEC010B020F0110012A032B012E04300233013404360137023F044020410445D082
:4004C00046024701481649FF4AFF4BFF4DA04F04501852805405580459045A045B045C325D225F01604062C06440654066C068C06AC06CC06EC0800187028F0196029702D5
:400500009A03A204AB01B001B204B402B501B702BF10C030C105C5D1C612C80FC9FFCAFFCBFFCDA0CF04D018D280D405D804D904DA04DB04DC23DD33DF01E040E2C0E4407D
:40054000E540E6C0E8C0EAC0ECC0EEC004010A400D080F0812081340164019A01A441C401D081F18200122042540270829202F08360838803A903E043F804284450849017E
:400580004D014F88504052085610574059815A085C405D015F087340764087108940C010C268C413CA24CC40CE5CD045D210D6DBE620EA01A904AB40EA015F808380D620E0
:4005C000E2803E10CE20961010101420C40C52209830D4049830AA20983096106410668084108A80AA10D680D880E640EA8010401320148078107C209830C40EDE03784023
:400600007C8098C0AB20DC01DE04003308130A33100C1A0C03C00000203000003000000000030300010000003000000030003000003000000020000000000000000B0B00CF
:4006400000000000030C0C000800000000C0C000C0000000000000000000000000000000000000000000000000000000000000000000000000000000000000000000000017
:40068000000000000000000000000000000000000000000000000000000000000000000000000000000000000000000000000000000000000000000000000000000000003A
:4006C00000000000000000000000000000000000000000000000000000000000000000000000000000000000000000000000000000000000000000000000000000000000FA
:4007000000000000000000000000000000000000000000000000000000000000000000000000000000000000000000000000000000000000000000000000000000000000B9
:400740000000000000000000000000000000000000000000000000000000000000000000000000000000000000000000000000000000000000000000000000000000000079
:0200000490006A
:0400000000004005B7
:0200000490105A
:04000000BC90ACAF55
:0200000490303A
:02000000DD5DC4
:0200000490402A
:4000000000000000000000000000000000000000000000000000000000000000000000000000000000000000000000000000000000000000000000000000000000000000C0
:400040000000000000000000000000000000000000000000000000000000000000000000000000000000000000000000000000000000000000000000000000000000000080
:400080000000000000000000000000000000000000000000000000000000000000000000000000000000000000000000000000000000000000000000000000000000000040
:4000C0000000000000000000000000000000000000000000000000000000000000000000000000000000000000000000000000000000000000000000000000000000000000
:0200000490501A
:0C00000000012E12706900012E1A4DC67E
:00000001FF