:400000000080002011000000190200001902000008B5044B1A6803F53F5302331A6000F003F900BFFA46004010B5054C237833B9044B13B10448AFF300800123237010BD45
:400040007081FF1F00000000900E0000084B10B51BB108480849AFF300800848036803B910BD074B002BFBD0BDE81040184700BF00000000900E00007481FF1F0881FF1F35
:400080000000000008B500F00BFB08200421124A00F014FB00F016FD00F096FD62B60E4B1A7A1878824203D15A7A5B789A4204D0094B597800F012F8F1E7074B9A7A98786E
:4000C000824203D1DA7ADB789A42E8D0024BD97800F058F8E3E700BF8C81FF1F38B504460D46254A1178254B197052785A70012000F0F4FB284600F0EBFB00F095FCA042E5
:4001000023D2C82C21D800F08FFC201AC5B200F08BFC2844C5B2012000F0ECFB184B1D70012000F059FE012000F05CFE03E0124B1B78A34203D100F077FCA842F7D10020DB
:4001400000F04AFE002000F04DFE00F06DFCA04210D97CB1002000F0CDFB00F03DFC03E0054B1B78A34203D100F05EFCA042F7D100F0D4FB002038BD8C81FF1F9481FF1FF5
:400180000564004038B504460D46214A9178214B9970D278DA70012000F012FE284600F009FE00F0C3FCA0421AD2C82C18D800F0BDFC201AC5B200F0B9FC2844C5B20120A5
:4001C00000F08EFC00F0E8FD03E0114B9B78A34203D100F0ABFCA842F7D100F07FFD14E000F022FCA04210D97CB1002000F078FC00F05EFD03E0064B9B78A34203D100F037
:4002000095FCA042F7D100F0F5FC002038BD00BF8C81FF1F9481FF1F08B500F0F9FD03680C2B00D1FEE7FEE708B5104E104D16E029686B68AC68002204E051F8040B43F811
:40024000040B0432A242F8D1E868002203E0002143F8041B04328242F9D11035013E002EE6D100F0DBFDFFF70DFFFEE701000000F80E000008B5124A124B1A60124A136812
:4002800043F40073136000230AE0032B03D80F4A52F8231000E00E490E4A42F8231001332F2BF2D90C4B1A780C4B1A70094A0C4B1A6000F0D5F800220A4B1A6008BD00BFC0
:4002C0000004FA050CED00E014ED00E000000000190200000080FF1FBC7600400481FF1F08ED00E00081FF1FFEE700BFF0B40022174611E050F82760F3B226F0FF0608E0D0
:4003000001EB420511F812406D78A5550132013BDBB2002BF4D101371D2FEBD9F0BC7047064B1B78DBB203F00701054A11701B09013213704422034B1A707047CF01004995
:400340006E5800407658004008B50A46002100F096FD08BD38B51722334B1A80182333490B7002310A80324A137040F2DF1204310A8002310B7002310A802E4A137043F646
:4003800097230232138019250232157002321380294B1D7047F22F5202331A8002331D70022203F266231A7008224FF040231A70032103F500731970204B1B78DBB2204924
:4003C0000B70204B1A8041F25122023B1A8000240CE01D4B1B7803F0010343EA440404F003044FF4F07000F003FD013D0DB1032CEFD115B90320FFF777FF144B4FF480721F
:400400001A8007221A70002211490A704820023108701A700222033B1A700E4A137843F07F03137038BD00BF8040004082400040864000408E4000409640004008010049A3
:40044000A146004022420040254200400440004006400040A243004008B500F005FD08BD70B572B63A4A137843F00403137000240CE0384963001A1952000A4423445B00C5
:40048000C8589188FFF760FF0134E4B2072CF0D900240BE02F49A3001A1952000A44106B516B0622FFF7D8FF0134E4B2002CF1D04FF090402849FFF719FF284A137843F048
:4004C000020313701032137843F002031370244C237843F040032370A2F58632513A137843F0100313701F481F490822FFF7B4FF1E481F490A22FFF7AFFF1E481E49052276
:40050000FFF7AAFF1D481E490822FFF7A5FF1D481D490822FFF7A0FF1C481D490822FFF79BFF1C4A137843F0080313701A4E01253570FFF70FFF81233370184B1D70FFF768
:40054000EFFE174821460E22FFF786FF70BD00BFE8460040940E00007800004803500140A043004002510040A8060048C0510040B0060048CB510040BC06004812510040C9
:40058000C406004822510040CC06004832510040D4060048224300400048004004000840B043004001BE704770B504460E46074B1D681F2802D90020FFF7F4FF04F01F0479
:4005C000103455F8240045F8246070BD08ED00E038B504460D46072902D90020FFF7E2FF1F2C02D90020FFF7DDFF04F01F0000F1604000F564406D01EDB2057038BD00BF6C
:4006000010B50122124B1A7081220E3B1A70082202331A70032211331A70002401331C704FF400420B4B1A600F200721FFF7D0FF0F200949FFF7B8FF084B1C70084B1C7058
:40064000084B1C70084B1C70084B1C8010BD00BFD649004080E100E00D070000AB81FF1FA481FF1FAA81FF1FB081FF1FA881FF1F08B500F0C5FB084A137843F0040313701A
:400680001032137843F00403137000F0BDFB4FF40042024B1A6008BDA543004000E100E008B5054B1B7823B9FFF7AAFF0122024B1A70FFF7DDFF08BD9C81FF1F10B44FF420
:4006C00000440B4B1C6032B113460A4A13600A4B18800A4B19800023094A1370094A13704FF40042084B1A605DF8044B704700BF80E100E0AC81FF1FA681FF1FA881FF1FB3
:40070000AA81FF1FB081FF1F00E100E0654B1B78DBB2654A137013F0080F32D0634B1B7813F0010F1CD0624A1378DBB261490968CB5CDBB25D490B7014215A4B1970137860
:40074000DBB25D4A137013780133DBB213705B4A137843F0110313700822594B1A708EE01022504B1A70554A137843F0120313700122534B1A70534A137843F010031370AB
:400780007DE013F0010F7AD04D4A1278D2B2042A1ED0082A3AD0012A68D1444B1B78DBB2414A5370484A128892B293420CD210223C4B1A703C4B5B783D4A13703E4A13704C
:4007C00004223F4B1A705AE00022364B1A7056E0394B1A783D4B1B889BB29A4212D2334B1B7831494B7010222E4B1A70324A1378DBB2304800684978C15413780133DBB2C3
:4008000013703CE00022274B1A7038E013F0020F1ED1294B1A782C4B1B889BB29A4210D2254A1378DBB223490968CB5CDBB21F490B7004211B4B197013780133DBB21370D7
:400840001DE0FF22194B1A700422013B1A7016E0FF22164B1A700022013B1A7017490B7803F0EF030B70164B1A7008E00023144A13700F4A1370104A13700A4A1370094B98
:400880001B7813F0200F0CD00C4A137803F0EF03137000220A4B1A700A4A137803F0EF0313707047D74900409D81FF1FD8490040AA81FF1FAC81FF1FB081FF1FA481FF1F2C
:4008C000AB81FF1FD6490040A681FF1FA881FF1F014B1870704700BF25650040044A137803F0BF03800100F0400018431070704730510040044A137803F0FD03400000F021
:40090000020018431070704700510040024A137843F080031370704777650040024A137803F07F031370704777650040014B1870704700BF07650040014B1870704700BFCD
:4009400047650040014B1870704700BF27650040014B1870704700BF87650040014B1878704700BF67650040014B1878704700BF5765004008B501E0FFF7F6FFFFF7EEFFE7
:4009800010F0100FF8D108BD10B5114A137803F0C00343F0190313700E4C237843F0010323700120FFF7C2FF0120FFF7C5FF0120FFF7C8FF0020FFF7CBFF00F021FA237881
:4009C00043F01003237000F01FFAFFF7D3FF10BD776500409765004008B5054B1B7823B9FFF7D2FF0122024B1A70FFF78FFF08BD9F81FF1F024A137843F08003137070479D
:400A000077640040014B1870704700BF87640040014B1878704700BF67640040014B1870704700BF07640040024B1B78024B1878704700BF0764004047640040014B18782F
:400A4000704700BF47640040014B1870704700BF27640040014B1870704700BF3764004008B501E0FFF7EAFFFFF7D2FF10F0400FF8D108BD08B5114B1A7802F0F8021A7099
:400A80001A7802F0FC021A70FFF7EAFFC820FFF7DBFFC820FFF7C2FF0020FFF7B3FFFFF7B7FF6420FFF7D6FF00F0AAF9044A137843F01003137000F0A7F908BD776400408C
:400AC0009764004008B5054B1B7823B9FFF7D2FF0122024B1A70FFF78DFF08BDA081FF1F044A137803F0FB03800000F0040018431070704720510040024A137843F08003EA
:400B00001370704771640040014B1870704700BF81640040014B1878704700BF61640040014B1870704700BF01640040024B1B78024B1878704700BF0164004041640040F4
:400B4000014B1878704700BF41640040014B1870704700BF21640040014B1870704700BF3164004008B501E0FFF7EAFFFFF7D2FF10F0400FF8D108BD08B5114B1A7802F052
:400B8000F8021A701A7802F0FC021A70FFF7EAFFC820FFF7DBFFC820FFF7C2FF0020FFF7B3FFFFF7B7FF6420FFF7D6FF00F028F9044A137843F01003137000F025F908BD26
:400BC000716400409164004008B5054B1B7823B9FFF7D2FF0122024B1A70FFF78DFF08BDA181FF1F024A137843F080031370704772640040024A137803F07F031370704784
:400C000072640040014B1870704700BF03640040014B1870704700BF43640040014B1870704700BF23640040014B1870704700BF83640040014B1878704700BF63640040A1
:400C4000014B1878704700BF5364004008B501E0FFF7F6FFFFF7EEFF10F0100FF8D108BD10B5114A137803F0C00343F0190313700E4C237843F0010323700120FFF7C2FF48
:400C80000120FFF7C5FF0120FFF7C8FF0020FFF7CBFF00F0B5F8237843F01003237000F0B3F8FFF7D3FF10BD726400409364004008B5054B1B7823B9FFF7D2FF0122024B5A
:400CC0001A70FFF78FFF08BDA281FF1F024A137843F080031370704773640040024A137803F07F031370704773640040014B1870704700BF00640040014B1870704700BF2D
:400D000040640040014B1870704700BF20640040014B1870704700BF80640040014B1878704700BF60640040014B1878704700BF5064004008B501E0FFF7F6FFFFF7EEFF4B
:400D400010F0100FF8D108BD10B5114A137803F0C00343F0190313700E4C237843F0010323700120FFF7C2FF0120FFF7C5FF0120FFF7C8FF0020FFF7CBFF00F041F823789F
:400D800043F01003237000F03FF8FFF7D3FF10BD736400409064004008B5054B1B7823B9FFF7D2FF0122024B1A70FFF78FFF08BDA381FF1F014B1870704700BF2665004076
:400DC000044A137803F07F03C001C0B203431370704700BF30510040014B1870704700BF76640040014B1870704700BF756400400230800803D000BF01380046FCD170475C
:400E0000EFF3108072B6704780F31088704700BF014B1868704700BF6C81FF1F0E4B70B51E460E4C0025E41AA410A54204D056F8253098470135F8E700F04CF8084B094C52
:400E40001E46E41AA4100025A54204D056F8253098470135F8E770BDE00E0000E00E0000E00E0000E80E000010B5431E0A44914204D011F8014B03F8014FF8E710BD034648
:400E80000244934202D003F8011BFAE77047000000000000C84900401900405100403000F0510040100000000140001000140140000800400140000A004C01400002005082
:400EC0000140200060520040A00600480600000043000000F8B500BFF8BC08BC9E4670474D00000075020000F8B500BFF8BC08BC9E46704729000000080F00000881FF1FBF
:400F00006800000048000000000000000000000000000000000000000000000000000000000000000000000000000000D00E00000000000000000000000000000000000023
:400F400000000000000000000000000000000000000000000000000000000000000000000000000000000000000000000C81FF1F00000000000000000000000000000000C6
:400F80000000000000000000000000000000000000000000000000000000000000000000000000000000000000000000000000000000000000000000000000000000000031
:400FC00000000000000000000000000000000000000000000000000000000000000000000000000000000000000000000000000000000000000000000000000000000000F1
:4010000000000000000000000000000000000000000000000000000000000000000000000000000000000000000000000000000000000000000000000000000000000000B0
:401040000000000000000000000000000000000000000000000000000000000000000000000000000000000000000000000000000000000000000000000000000000000070
:020000040003F7
:0200000480007A
:40000000035200400564004003650040540001402B010140450201403803014050040140350501404006014037070140010D0140351401402B1501404F1601403017014036
:40004000011B0140024101400542014001430140034401400545014001460140014701400148014009490140084C0140064D01400550014001510140000118801980800D40
:40008000816F830D840D876F850D860D870D17021B031F0126013302340137013F044020410645D046014702481649FF4AFF4BFF4DA04F0450185405580459045A045B0421
:4000C0005C605D665F01604062C06440654066C068C06AC06CC06EC0860488028B03920294099D02A203AA04AE09B004B101B203B408B702BE14BF40C030C102C53CC620CD
:40010000C74EC83BC9FFCAFFCBFFCDA0CF01D018D280D40FD804D904DA04DB04DC16DD11DF01E040E280E440E540E680E840EA80EC40ED20EE8005180EA01020158016802C
:40014000171018041D281E802140220427423298332037403D203F104320452849014A084F05528855105608570259015A085B805E085F52660867047680C060C230C4D44C
:40018000CC1ECE20D064D204D6FBD86003010D02120122042E022F02300432023301340135023F105280580459045B045C615D605F018204850186018B048C0290029302B5
:4001C00095089F08A701AB04B108B204B304B401B502B602B701B880BE40BF04C030C102C5D1C620C80BC9FFCAFFCBFFCDA0CF04D018D280D405D804D904DA04DB04DC6601
:40020000DD66DF01E040E2C0E440E540E6C0E8C0EAC0ECC0EEC00148028008010C010E8015C0168018081A021B081D101E602254238024102620271029082A102E802F0246
:4002400031023280330838183C023E4040104320490A5210532059025A88710274018A01900491809301962097409D189F90A2C0A302A420A614C00DC218C490CA16CC0BE6
:40028000CE96D006D60B05020E081201140817011B021E01260429012E023008310232043401360237013E113F014010410545D14602480749FF4AFF4BFF4DA04F04501864
:4002C00052805405580459045A045B045C445D445F01604062C06440654066C068C06AC06CC06EC0830184028E019E04A402AC04B002B101B201B404B802BE11C004C70269
:40030000C810C9FFCAFFCBFFCD20CEF0CF10D110D201D610D804D904DA04DB04DC10DD55DF01E240E340008002010601071009080A010B800F011220134015041740190245
:400340001A051B081D081E081F022240238027402B083020310438043F014201470149054A204B805340540859015A846F017340870290049301A420A604AE20AF40C0A19A
:40038000C28DC4A5CA04CC06CE82D088D208D60B060113011403150229012E032F013001320233033A0A52015610580459045B045C555D505F01860A8C028F029203970164
:4003C00098019B02A901AA05B008B302B404B501B603BE40BF14C010C102C524C6C3C70EC81FC9FFCAFFCBFFCDA0CF01D018D280D40FD804D904DA04DB04DF01E040E280BB
:40040000E440E540E680E840EA80EC40ED20EE800040010C050409020A040C0812081540184119201A041D041E40200422042608271029202C082E4032083320350437011B
:40044000398040054860504051085210580459025BA0610862106D406F01710284408720950499029B809F10A008A460C025C22AC482CA34CCC6CE08D00CD60FD806E0203D
:400480000E010F012501320133013F04580459045F01840187028B029A07A604A701AB01AE08B001B202B301B408B604B702BF04C030C102C5D1C702C813C9FFCAFFCBFFF1
:4004C000CDA0CF04D018D280D405D804D904DA04DB04DC23DD33DF01E040E2C0E440E540E6C0E8C0EAC0ECC0EEC0004005040F081410178019081D041E401FA0210824011F
:40050000260429082C102F283004310838C03E103F04441046044F09560457085E485F01778087808C019080921093049C04C021C240C4A0CA62CE68D060D6D0E610EA014E
:4005400004010B011A0323012E04300132043301340236043F044010410645D14620480B49FF4AFF4BFF4DA04F04501852805405580459045A045B045C025D225F01604042
:4005800062C06440654066C068C06AC06CC06EC086048A05920297019801B001B204B402B501C020C105C5D0C602C701C816C9FFCAFFCBFFCDA0CF04D018D280D405D8041A
:4005C000D904DA04DB04DC44DD44DF01E040E2C0E440E540E6C0E8C0EAC0ECC0EEC00328040409200B400F04178019081A401B201C441D801E101F80212026042F803308BD
:400600003F204320458049014B804F2551405348571059015A485C405E085F01734077809080920895809C049D08A720C026C24AC480CA80CC02CE20D014D228D6DBEA018E
:400640005620D4403E1086209E20CE20E210961010101420C40C52208A209830D404E0049830983096106302660487018E04AA10D640D880E610EA801040132014807810AE
:400680007C209830C40EDE0378407C8098C0AB20DC01DE04007308430A33101D1A1D03C0203000003000000000030300010000003000000030003000003000000020000004
:4006C00000000000000B0B0000000000030C0C000800000000C0C000C000000000000000000000000000000000000000000000000000000000000000000000000000000081
:4007000000000000000000000000000000000000000000000000000000000000000000000000000000000000000000000000000000000000000000000000000000000000B9
:400740000000000000000000000000000000000000000000000000000000000000000000000000000000000000000000000000000000000000000000000000000000000079
:400780000000000000000000000000000000000000000000000000000000000000000000000000000000000000000000000000000000000000000000000000000000000039
:4007C00000000000000000000000000000000000000000000000000000000000000000000000000000000000000000000000000000000000000000000000000000000000F9
:0200000490006A
:0400000000004005B7
:0200000490105A
:04000000BC90ACAF55
:0200000490303A
:02000000BD80C1
:0200000490402A
:4000000000000000000000000000000000000000000000000000000000000000000000000000000000000000000000000000000000000000000000000000000000000000C0
:400040000000000000000000000000000000000000000000000000000000000000000000000000000000000000000000000000000000000000000000000000000000000080
:400080000000000000000000000000000000000000000000000000000000000000000000000000000000000000000000000000000000000000000000000000000000000040
:4000C0000000000000000000000000000000000000000000000000000000000000000000000000000000000000000000000000000000000000000000000000000000000000
:0200000490501A
:0C00000000012E12706900012E1A2DE97B
:00000001FF