:400000000080002011000000790100007901000008B5044B1A6803F53F5302331A6000F0B3F800BFFA46004010B5054C237833B9044B13B10448AFF300800123237010BDD8
:400040007881FF1F0000000058090000084B10B51BB108480849AFF300800848036803B910BD074B002BFBD0BDE81040184700BF00000000580900007C81FF1F0881FF1F9F
:400080000000000010B51D48062100F095FB1C48062100F0ABFB00F047FA62B600F052FB10F0100F1FD000F0BBFB062810D1144B1B78012B0ED1124B5B79172B0CD1104B5D
:4000C00058789978DA781B7900F01CF8044604E0FF2402E0FF2400E0FF2400F0ADFB00F04DFB064B5C7000F02DFB10F0010FD5D000F09CFB00F02CFBD0E700BF0C81FF1F63
:400100009881FF1F08B51A4B1B78DBB2C82B02D96422174B1A70642805D811D1144B1B78DBB2632B0CD8124B1B78C01AC0B2114B1870012000F0BAFB012000F0B1FB14E033
:40014000632806D9642810D1094B1B78DBB2642B0BD9074B1B78181AC0B2064B1870022000F0A4FB012000F09BFB002008BD00BF0A6400400B64004008B500F0ADFB036846
:400180000C2B00D1FEE7FEE708B5104E104D16E029686B68AC68002204E051F8040B43F8040B0432A242F8D1E868002203E0002143F8041B04328242F9D11035013E002EB6
:4001C000E6D100F08FFBFFF75DFFFEE701000000C009000008B5124A124B1A60124A136843F40073136000230AE0032B03D80F4A52F8231000E00E490E4A42F823100133CD
:400200002F2BF2D90C4B1A780C4B1A70094A0C4B1A6000F0AFF800220A4B1A6008BD00BF0004FA050CED00E014ED00E000000000790100000080FF1FBC7600400481FF1FB5
:4002400008ED00E00081FF1FFEE700BFF0B40022174611E050F82760F3B226F0FF0608E001EB420511F812406D78A5550132013BDBB2002BF4D10137182FEBD9F0BC7047DC
:40028000064B1B78DBB203F00701054A11701B09013213704422034B1A707047CF0100496E5800407658004008B50A46002100F04AFB08BD38B543F69722244B1A801925B8
:4002C00002331D70022203F27E231A7008224FF040231A70032103F5007319701C4B1B78DBB21C490B701C4B1A8041F25122023B1A8000240CE0194B1B7803F0010343EA7A
:40030000440404F003044FF4F07000F0D5FA013D0DB1032CEFD115B90320FFF795FF104B4FF480721A8007221A7000220D490A704820023108701A700222033B1A700A4A06
:40034000137843F00103137038BD00BF8040004008010049A146004022420040254200400440004006400040A243004008B500F0DFFA08BD70B572B6354A137843F00403B5
:40038000137000240CE0334963001A1952000A4423445B00C8589188FFF786FF0134E4B2072CF0D900240BE02A49A3001A1952000A44106B516B0622FFF7D8FF0134E4B2CC
:4003C000002CF1D04FF090402349FFF73FFF234A137843F0020313701032137843F0020313701F4C237843F040032370A2F58632513A137843F0100313701A481A490822FA
:40040000FFF7B4FF19481A490A22FFF7AFFF194819490822FFF7AAFF184819490822FFF7A5FF184A137843F008031370164E01253570FFF73FFF81233370144B1D70FFF733
:400440001FFF134821460E22FFF790FF70BD00BFE84600405C0900006400004803500140A04300400251004030030048C051004038030048125100404403004822510040FE
:400480004C030048224300400048004004000840B043004038B58123124A13700E3A13700825114B1D70032211331A70002401331C704FF400420D4B1A600F20072100F033
:4004C000D7F90F200A4900F0BFF91022094B1A70094B1C70094B1C70094B1C70284600F063F938BDD6490040CA49004080E100E0510500009E81FF1FA881FF1FA081FF1F97
:40050000A181FF1F08B500F0DFF9064A137843F0040313701032137843F00403137000F0D7F908BDA543004008B5074B1B7823B9FFF7B0FF0122044B1A70FFF7E3FF4FF4ED
:400540000042024B1A6008BD9481FF1F00E100E008B5714B1B78DAB2704B1B7813F0400F40F0D8806D4B1B7813F0100F00F0CF8012F0200F03D102F00903092B15D1674B7E
:400580001B78DBB2112B10D165490B7803F0EF030B70644B197801F0DF011970197841F01001197010215D4B197012F0010F00F0B18012F0080F41D05B4B1B7813F0010F6C
:4005C0002BD05A4B1B785A4A1278DBB2934215D2564A1378DBB257490968CB5CDBB252490B7014214C4B197013780133DBB213704C4A137843F0020313700AE0FF224A4B1E
:400600001A701422013B1A70464A137843F0060313701222414B1A7008BD10223E4B1A7011223E4B1A703F4A137843F0200313703B4A137843F01003137008BD374B1B7820
:40064000DBB2112B20D13C4B1B783C4A1278DBB2934210D2344B1978C9B21022013B1A70354A1378DBB236480068C15413780133DBB2137008BD0022274B1A70294A13788D
:4006800043F04003137008BD244B1B78DBB2122B39D112F0020F23D1244B1B78244A1278DBB2934210D2214A1378DBB221490968CB5CDBB21C490B700421174B19701378D4
:4006C0000133DBB2137008BDFF22174B1A700422013B1A70134A137843F00403137008BDFF22114B1A700022013B1A700D4B1A7802F0FD021A701A7842F001021A701022B7
:40070000064B1A7008BD002000F09CF808BD1022024B1A7008BD00BFD74900409E81FF1FD6490040A881FF1FD8490040A081FF1FA381FF1FA481FF1FA181FF1FA281FF1F3A
:40074000AC81FF1F014B1878704700BFA881FF1F4FF40041064B1960064B18781A7802F0F2021A70044B196000F00F00704700BF80E100E0A881FF1F00E100E04FF400415A
:40078000064B1960064B18781A7802F02F021A70044B196000F0F000704700BF80E100E0A881FF1F00E100E000F07F00014B1870704700BFCA490040024660B14FF40043FD
:4007C0000548036005480260054A11700021054A1170054A1360704780E100E0A481FF1FA381FF1FA081FF1F00E100E0024660B14FF400430548036005480260054A11708C
:400800000021054A1170054A1360704780E100E0AC81FF1FA281FF1FA181FF1F00E100E0014B1878704700BFA181FF1F0022014B1A707047A081FF1F0022014B1A70704751
:40084000A181FF1F01BE704770B504460E46074B1D681F2802D90020FFF7F4FF04F01F04103455F8240045F8246070BD08ED00E038B504460D46072902D90020FFF7E2FFE2
:400880001F2C02D90020FFF7DDFF04F01F0000F1604000F564406D01EDB2057038BD00BF014B1870704700BF7B640040014B1870704700BF7A6400400230800803D000BF90
:4008C00001380046FCD17047EFF3108072B6704780F31088704700BF014B1868704700BF7481FF1F0E4B70B51E460E4C0025E41AA410A54204D056F8253098470135F8E769
:4009000000F04CF8084B094C1E46E41AA4100025A54204D056F8253098470135F8E770BDA8090000A8090000A8090000B009000010B5431E0A44914204D011F8014B03F8EA
:40094000014FF8E710BD03460244934202D003F8011BFAE77047000000000000C84900401900305100404000F0510040100000000140001000140140000800400140000A61
:40098000004C0140000200500140200060520040280300480600000043000000F8B500BFF8BC08BC9E4670474D000000D5010000F8B500BFF8BC08BC9E46704729000000FF
:4009C000D00900000881FF1F70000000380000000000000001FF00000017000000000000000000000000000000000000000000000000000000000000000000009809000017
:400A00000000000000000000000000000000000000000000000000000000000000000000000000000000000000000000000000000000000000000000000000001481FF1F03
:400A40000000000000000000000000000000000000000000000000000000000000000000000000000000000000000000000000000000000000000000000000000000000076
:400A80000000000000000000000000000000000000000000000000000000000000000000000000000000000000000000000000000000000000000000000000000000000036
:400AC00000000000000000000000000000000000000000000000000000000000000000000000000000000000000000000000000000000000000000000000000000000000F6
:400B000000000000000000000000000000000000000000000000000000000000000000000000000000000000000000000000000000000000000000000000000000000000B5
:020000040003F7
:0200000480007A
:400000000452004003640040460201402103014001050140370A0140200B0140050D0140370E01401D0F014001150140011B01400641014004420140014301400444014049
:40004000104501400A460140014701400148014002490140084C0140064D0140045001400151014000010101109611CC0A640E64820D030112051A011E0C22022901300294
:4000800031013208340136043E104040410645D246204710482B49FF4AFF4BFF4DA04F04501852805405580459045A045B045F01604062C06440654066C068C06AC06CC0D6
:4000C0006EC086019202A601B201B402C020C106C501C702C811C9FFCAFFCBFFCDA0CF04D018D280D804DA04DB04DF01E040E2C0E440E540E6C0E8C0EAC0ECC0EEC00004E9
:400100000A400E800F0A10201680180419041D021E881F8827802F083F024004450248284F29500857115E085F81724076808780C004C2D8C414CA20CE80D084D224D6D0BE
:40014000A904001002200C010E0618311A02200F2A092B032D012F02300331013210340C350236203A224014410649FF4AFF4BFF4D204EF0511052035610580459045A0407
:400180005B045F01664067206A406B40C054C520C602C806C9FFCAFFCBFFCD20CEF0CF10D110D201D610DA04DB04DF01E240E34001420A04108819A21A141B01211023804C
:4001C00029202B0141404240470148044C804F805740680C69C06E406F0185908E109F80B780C009C202C40ACA0CD089D214E00AA840A920AA10E805EC04001002200C011C
:400200000E0618311A02200F2A092B032D012F02300331013210340C350236203A224014410649FF4AFF4BFF4D204EF0511052035610580459045A045B045F016640672046
:400240006A406B40C054C520C602C806C9FFCAFFCBFFCD20CEF0CF10D110D201D610DA04DB04DF01E240E34001420A04108819221A141B812040212029202B014140424032
:40028000470148044C804F805740680C69C06E406F018380C009C202C40ACA0CD089D214E404EA01EA01500457018701D420D620E6103E10A804CE20EE8096101010142028
:4002C0008102C40C5040548059025B805F20630866A0983099029AA0A304AAA0AB04D407D607D803848087808C40948098309F80A480B720E408EC0898309610AA10EA8012
:4003000010401320148078107C209830C40EDE0378407C8098C0AB20DC01DE04000108010C010E0103C000002030000030000000000303000300000030000000300030006F
:4003400000000000000B0B000000000000FFFF00FF00000000000000000000000000000000000000000000000000000000000000000000000000000000000000000000006A
:40038000000000000000000000000000000000000000000000000000000000000000000000000000000000000000000000000000000000000000000000000000000000003D
:4003C00000000000000000000000000000000000000000000000000000000000000000000000000000000000000000000000000000000000000000000000000000000000FD
:4004000000000000000000000000000000000000000000000000000000000000000000000000000000000000000000000000000000000000000000000000000000000000BC
:40044000000000000000000000000000000000000000000000000000000000000000000000000000000000000000000000000000000000000000000000000000000000007C
:0200000490006A
:0400000000004005B7
:0200000490105A
:04000000BC90ACAF55
:0200000490303A
:0200000062108C
:0200000490402A
:4000000000000000000000000000000000000000000000000000000000000000000000000000000000000000000000000000000000000000000000000000000000000000C0
:400040000000000000000000000000000000000000000000000000000000000000000000000000000000000000000000000000000000000000000000000000000000000080
:400080000000000000000000000000000000000000000000000000000000000000000000000000000000000000000000000000000000000000000000000000000000000040
:4000C0000000000000000000000000000000000000000000000000000000000000000000000000000000000000000000000000000000000000000000000000000000000000
:0200000490501A
:0C00000000012E12706900012E16D2794A
:00000001FF