:400000000010002011000000A5020000A502000008B500F04FF9C04638B5174C23688022D20213432360182000F004FA2268134B13402360124A134B1A601022124B1A60EB
:400040002032124B1A6080221206114B1A6000252560104A104B1A60104A114B1A60114A114B1A600920114900F0A2F9092000F089F90F4B1D6038BD00010B40FFFFFBFFD4
:400080000600008004010B400C0202403002024008010B40020000800000024076010080400002403F0100C080000240450600000C020B4010B572B6002410E023486300E0
:4000C0001A195200821891881B195B001A5AC31858880004104300F04FF90134E4B2012CECD91A49081C0C302C3100F02BF9184A184B1A60184A194B1A6099231B04184ACE
:40010000136093210904174A1160174A1360174B197802220A431A70154802783C218A4328390A430270197816220A431A700F22104B1A60104A114B1A600322104B1A6006
:40014000104A114B1A60FFF767FF10BDFC0D00003333000008000140EEEE00000C00014020500F4028500F4030500F4000700F4001700F4000020440DB06000008020440FC
:4001800000030440A40D00000803044010B5064C2378002B07D1054B002B02D0044800E000BF0123237010BD5001002000000000F80D000008B5084B002B03D00748084963
:4001C00000E000BF07480368002B00D108BD064B002BFBD09847F9E700000000F80D000054010020C80000200000000010B51C48062100F057FB1B48062100F071FB00F015
:4002000089FA62B600F020FBC3061FD500F082FB062810D1134B1B78012B0ED1114B5B79172B0CD10F4B58789978DA781B7900F01BF8041C04E0FF2402E0FF2400E0FF2441
:4002400000F074FB00F01AFB054B5C7000F0FCFAC307D7D500F064FB00F0FCFAD2E7C046CC0000209401002008B500280AD0002908D10B4B1870012000F05EFB012000F0F3
:4002800061FB0BE0002909D0002807D1044B1970023000F051FB012000F054FB002008BD03000F4008B500F073FD03680C2B00D1FEE7FEE770B50F4E0F4D13E029686B6889
:4002C000AC68002202E001C901C30432A242FAD1E868002202E0002102C304328242FAD11035013E002EE9D100F058FDFFF77EFFFEE7C04601000000D40F000008B50023A1
:400300000AE0032B03D89A000A49505800E00A4899000A4A885001332F2BF2D9FFF7CAFE0022074B1A608022D205116801230B43136008BD00000000A502000000000020D6
:40034000C0000020F0B50025002711E0BB00C658F3B2FF22964308E06A008A181478A419527822700135013BDBB2002BF4D10137072FEBD9F0BDC04608B50A1C002100F0E2
:4003800033FD08BD1F2318401E3B8340181C014B1860704700E100E01F2318401E3B8340181C014B1860704780E100E001BE704738B5041C0D1C1F2802D90020FFF7F6FFA3
:4003C000A400034B9C4664442068256038BDC0464000002070B5041C0E1E032E02D90020FFF7E4FF1F2C02D90020FFF7DFFF03252540ED00063500F0B5FAA408A400074B93
:400400009C46644423680322AA409343AE40351C1D43256000F0AAFA70BDC04600E400E008B5034B1B7B584300F092FA08BDC046D4000020F0B557464E46C0B483B0041CFF
:4004400000F090FA0190E71E2D2F74D83F4B1B78DBB2A34208D33E4B1B78DBB29A463D4B1B78DBB2994631E03B4B1B78DBB2A34208D33A4B1B78DBB29A46394B1B78DBB2AA
:40048000994623E0374B1B78DBB2A34208D3364B1B78DBB29A46354B1B78DBB2994615E0334B1B78DBB2A34208D3324B1B78DBB29A46314B1B78DBB2994607E02F4B1B78B9
:4004C000DBB29A462E4B1B78DBB299462D4BDE5D2F2E09D92A2C07D919222B4B1A60052000F036FA192503E0274B1D683F231D40AE4206D2234BDA5D234B1A60052000F03E
:4005000027FA1F4B9C4664442378DBB21F4A13601F4B52461A601F4B4A461A600520FFF77FFFAE420AD9174BDA5D174B1A60052000F00EFA02E00020FFF738FF019800F0FC
:4005400015FA03B00CBC91469A46F0BDC0F1FF0FC1F1FF0FC2F1FF0FC3F1FF0FC4F1FF0FC5F1FF0FC6F1FF0FC7F1FF0FC8F1FF0FC9F1FF0FCAF1FF0FCBF1FF0FCCF1FF0F8C
:40058000CDF1FF0F7C0F00002CFF0B4028FF0B401CFF0B4020FF0B40034B1868C0231B02184000D00120704700010B4008B500F0D9F9044A1368C02109020B43136000F02D
:4005C000D5F908BD00010B4010B500F0CBF908490A68084B1A408024E40122430A600A6813408022120213430B6000F0BFF910BD00010B40FF3FFFFF70B5061C00F0B2F9C0
:40060000041CFFF7C9FF002803D0FFF7DDFF012500E000250848331C0340084A106808490840184310601368012D01D1FFF7BEFF201C00F09BF970BD0404040010020B4050
:40064000FBFBFBFF10B5244B1B685B0715D5234B1B685B070ED5224BD969042001401F4C22688A432260DA698243DA611B69002B00D098470420FFF7BFFF174B1B685B053B
:4006800018D5164B1B685B0510D5154BD9698022D2001140114802688A430260D969114A0A40DA615B69002B00D098478020C000FFF7A2FF084B1B685B030CD5074B1B682A
:4006C0005B0304D5064B9B69002B00D098478020C002FFF791FF10BD10020B40E80000206C010020FFFBFFFF08B50B20FFF74AFE08BDC04608B500F03BF808BD08B5044A54
:400700001368802109060B431360FFF7EDFF08BD0000074008B5064B1B78002B04D1FFF7E9FF0122024B1A70FFF7E8FF08BDC0468C0100200A4B1B68DB050DD5094B1B68A0
:400740005B0409D4064B1968074A0A401A601A68802149000A431A600222044B1A6070470000074060000740FFFEFFFF6C00074010B51E4A11680C230B43136000241C4BC2
:400780001C601C4A1C4B1A601C4B1D4A13601D4A14601D491D4A11601D4A13601D4B1C600B20FFF7F9FD0B200321FFF713FE0B201949FFF7FDFD194B1C60194B1C604C2246
:4007C000FF32184B1A60184B1C60184B1C60184B1C603C3AFF3A174B1A70174B1C70174B1C60174B1C60174B1C7010BD7000074000000740C7080040600007400701008012
:4008000000030740040307409200FE0010030740000207400402074079090000C80E0740880E0740480F0740080F0740C80F0740880F07409A010020B00100209C010020E3
:40084000A0010020BC010020014B1878C0B27047B001002010B50B20FFF79EFD064A14780F231C4013780D218B4313700B20FFF789FD201C10BDC046B001002010B50B2098
:40088000FFF78AFD064B1C780F229443197820320A401A700B20FFF775FD201C10BDC046B001002038B5002810D00D1C041C0B20FFF772FD064B1C60064B1D600023064AC8
:4008C0001360064A13600B20FFF75CFD38BDC046AC010020A80100209C010020B401002038B500280ED00D1C041C0B20FFF754FD054B1C60054B1D600022054B1A600B20C7
:40090000FFF740FD38BDC046B8010020A4010020A0010020014B18687047C046A00100200022014B1A6070479C0100200022014B1A607047A0010020014B18707047C04693
:4009400070000F40014B18707047C04673000F400230800804D0C0460138FDD1C046C046C0467047EFF3108072B6704780F310887047C046C046C04610B5C04B1B68002B5E
:4009800000D09847BE4B1B68DB0702D50022BD4B1A60BD4B1B789B061FD4BC4B1A680223FF331A4219D0B84B1B78DB0709D5B84B1A7802218A431A70197809220A431A7053
:4009C00008E0B34B1A7820218A431A70197890220A431A700022AC4B1A70AB4B1B789B0600D5B6E1A84B1B78DB0600D48AE1A74B1B689B073ED50222A64B1A60A64A1368CA
:400A00000F211940136880221202134000D00123CB18A24A1278D2B29A4205D99C4A117804230B43137006E09C4A12789B1A9C490A68D31A0B609A4B1A689A4B1A60002314
:400A4000994A1360954A1370984B1A68802149020A431A601968964A0A401A608C4B1A7802218A431A70197801220A431A701022854B1A70854B1B681B0737D50822854B0C
:400A80001A608C4B1B689B040CD414E08A4B1A688A4909688A188A490968C9B211701A6801321A60874B1B681B07EFD1814A1168854B0B401360854B1B689B0604D5744AAF
:400AC000117840230B4313700022814B1A60814A7E4B1A606E4B1A7820218A431A70197810220A431A70684B10221A70674B1B685B0641D50122784B1A60784B1B68DB06A4
:400B00000FD50F32684B1A60664B1A68644B1A605F4A117802230B43137012225A4B1A7024E06F4B1B68644A12689B1A072B03D80422674B1A6011E0082B06D15D4A1368E2
:400B4000A02109020B43136008E05A4A1368802189010B43136008225D4B1A604C4A117820230B4313701122474B1A705D4A494B1A6001225C4B1A605C4B1B681B072AD5E3
:400B8000574B1B684C4A1068181A0838082802D9002408200EE001240CE0474B1A68474909688A1846490968C9B211701A6801321A6001380028F0D1002C08D03D4A136830
:400BC000802109020B4313600022414B1A6008223E4B1A6023E0454B1B685B071FD5384B1B68354A11683E4A126891420DD201213D4A1160304A1168304800684118DBB242
:400C00000B7013680133136006E0FFF793FD204A117840230B43137004222C4B1A60344B1B68DB0620D494E01D4B1A68314B1B689A420CD21A4B1A682F4909688A18127883
:400C4000D2B22E490A601A6801321A600CE0FF222A4B1A60114B1B78DBB20A2B04D80F4A13780133DBB213700B4B1B680F221340082BD9D10132224B1A606AE090010020E0
:400C80008C0E0740880E07409A0100204C0F0740B0010020400F074008020740BC010020B40100209C010020880F074004020740FFFFFEFF60000740A0010020B80100208B
:400CC0004003074008030740FF5FFFFFC00F0740C80F0740ED0F0000800E074064000740A4010020FF0F00006C000740CC0F07408C0F0740A8010020AC0100204002074063
:400D0000800F0740134A13685B005B0813601021114B1970114B1868114901401960186810490140196000230F490B600F490B600F49104B19601049104B19601049114B84
:400D400019601149114B19601368802109060B43136010BD000007409A01002060000740FF5FFFFFFFFCFFFFC80F0740880F0740ED0F0000800F0740F3070000C00F074036
:400D8000FF0F0000400F074017030000000F0740014B18687047C0464C0100200E4B70B500251E1C0D4CE41AA410A54204D0AB00F35898470135F8E700F0FAF8084B002542
:400DC0001E1C084CE41AA410A54204D0AB00F35898470135F8E770BDBC0F0000BC0F0000BC0F0000C40F0000031C8218934202D019700133FAE770470000000000300F4079
:400E0000000400400F40000402000F4025300F4013310F403B320F4026330F400A420F4003430F4002600F400064820F000F040106320C200E101101130219032A092C0120
:400E40002E063003310132103302340C36203A224051410649FF4AFF4BFF4D204EF0511052025610580459045A045B045F01664067206A406B4001020322100A18201A010A
:400E80001B2221012208332241404805680F89018C10C00DC403CC05D008D20C010108040E0C1E0127032A012E023004310232083301340136023E104010410245D0465034
:400EC0004712483A49FF4AFF4BFF4DA04F04501852805407580459045A045B045F01604062C06440654066C068C06AC06CC06EC0C005C520C802C9FFCAFFCBFFCD20CEF03A
:400F0000CF10D110D201D610DA04DB04DF01E240E340041006020D80160417401C501D801E08250127202F203D0245804604480149024F01560657205C405E085F21680161
:400F40006980774095809D02AE01B608C0C0C280C4C0CA40CE80D030D208D6F0E808501056405B105F408B408F10D407D604E004E402AE40B410EC020101100103040506D4
:400F80000708090A0B0C0E0F101112131415161718191B1C1D1E1F2021222325262728292A2B2E2F303132333435000043000000F8B5C046F8BC08BC9E467047B501000094
:400FC000FD020000F8B5C046F8BC08BC9E4670478D010000E80F0000C80000208800000070000000000000000000000001FF000000170000010000000000E02EC05D000084
:401000001800000000366E01040404000000000000000000000000000000000000000000000000000000000000000000AC0F0000000000000000000000000000000000002C
:401040000000000000000000000000000000000000000000000000000000000000000000000000000000000000000000EC0000200000000000000000000000000000000064
:401080000000000000000000000000000000000000000000000000000000000000000000000000000000000000000000000000000000000000000000000000000000000030
:4010C00000000000000000000000000000000000000000000000000000000000000000000000000000000000000000000000000000000000000000000000000000000000F0
:4011000000000000000000000000000000000000000000000000000000000000000000000000000000000000000000000000000000000000000000000000000000000000AF
:40114000000000000000000000000000000000000000000000000000000000000000000000000000000000000000000000000000000000000000000000000000000000006F
:0200000490303A
:02000000F938CD
:0200000490402A
:200000000000000000000000000000000000000000000000000000000000000000000000E0
:0200000490501A
:0C000000000204C81193110104CD0ACBCA
:0200000490600A
:0100000001FE
:00000001FF